:020000040800F2
:100000000000082415170008011600080316000850
:100010000516000807160008091600080000000071
:10002000000000000000000000000000E1B7000830
:100030000B1600080000000071B8000831B000087D
:1000400065170008651700086517000865170008A0
:100050006517000865170008651700086517000890
:100060006517000865170008651700086517000880
:100070006517000865170008651700086517000870
:100080006517000865170008651700086517000860
:100090006517000865170008651700086517000850
:1000A0006517000865170008651700086517000840
:1000B0006517000865170008651700086517000830
:1000C0006517000865170008651700086517000820
:1000D0006517000865170008651700086517000810
:1000E0006517000865170008000000006517000884
:1000F00065170008651700086517000865170008F0
:1001000065170008651700086517000865170008DF
:1001100065170008651700080D1600086517000828
:1001200065170008651700086517000865170008BF
:1001300065170008651700086517000865170008AF
:1001400065170008651700080000000000000000A7
:10015000651700086517000865170008651700088F
:10016000651700086517000865170008651700087F
:1001700065170008651700086517000800000000F3
:10018000651700086517000865170008651700085F
:10019000651700086517000865170008651700084F
:1001A00019160008651700082516000865170008CD
:1001B000651700086517000865170008651700082F
:1001C000651700086517000865170008651700081F
:1001D000651700086517000865170008651700080F
:1001E00065170008651700086517000865170008FF
:1001F00065170008651700086517000865170008EF
:1002000065170008651700086517000865170008DE
:1002100065170008651700086517000865170008CE
:1002200065170008311600083D1600085916000829
:1002300065170008651700086517000865170008AE
:10024000651700086517000865170008651700089E
:10025000651700086517000865170008651700088E
:10026000651700086517000865170008651700087E
:10027000651700086517000865170008651700086E
:1002800065170008651700086517000800000000E2
:0802900065170008651700085E
:1002A00010B5054C237833B9044B13B10448AFF3B0
:1002B00000800123237010BD3C01002400000000D9
:1002C0005412020808B5034B1BB103490348AFF3AE
:1002D000008008BD00000000400100245412020804
:1002E00001F0FF01102A2BDB10F0070F08D010F8E7
:1002F000013B013A8B422DD010F0070F42B3F6D1EB
:10030000F0B441EA012141EA014122F007047FF003
:1003100000070023F0E80256083C85EA010586EA5A
:10032000010685FA47F5A3FA87F586FA47F6A5FA96
:1003300087F68EB9EED1F0BC01F0FF0102F00702A2
:1003400032B110F8013B013A83EA010313B1F8D14D
:100350000020704701387047002D06BF354603382E
:10036000073815F0010F07D1013015F4807F02BF67
:10037000013015F4C03F0130F0BC0138704700BFB8
:1003800081F0004102E000BF83F0004330B54FEA46
:1003900041044FEA430594EA050F08BF90EA020FB3
:1003A0001FBF54EA000C55EA020C7FEA645C7FEA46
:1003B000655C00F0E2804FEA5454D4EB5555B8BF69
:1003C0006D420CDD2C4480EA020281EA030382EADA
:1003D000000083EA010180EA020281EA0303362D6C
:1003E00088BF30BD11F0004F4FEA01314FF4801C3F
:1003F0004CEA113102D0404261EB410113F0004F51
:100400004FEA03334CEA133302D0524263EB430307
:1004100094EA050F00F0A780A4F10104D5F1200EA5
:100420000DDB02FA0EFC22FA05F2801841F1000100
:1004300003FA0EF2801843FA05F359410EE0A5F1D4
:1004400020050EF1200E012A03FA0EFC28BF4CF005
:10045000020C43FA05F3C01851EBE37101F00045BB
:1004600007D54FF0000EDCF1000C7EEB00006EEBC8
:100470000101B1F5801F1BD3B1F5001F0CD3490852
:100480005FEA30004FEA3C0C04F101044FEA4452A9
:1004900012F5800F80F09A80BCF1004F08BF5FEA30
:1004A000500C50F1000041EB045141EA050130BD10
:1004B0005FEA4C0C404141EB0101013C28BFB1F522
:1004C000801FE9D291F0000F04BF01460020B1FA6D
:1004D00081F308BF2033A3F10B03B3F120020CDA40
:1004E0000C3208DD02F1140CC2F10C0201FA0CF01E
:1004F00021FA02F10CE002F11402D8BFC2F1200C83
:1005000001FA02F120FA0CFCDCBF41EA0C01904038
:10051000E41AA2BF01EB0451294330BD6FEA040481
:100520001F3C1CDA0C340EDC04F11404C4F120026C
:1005300020FA04F001FA02F340EA030021FA04F37E
:1005400045EA030130BDC4F10C04C4F1200220FAD5
:1005500002F001FA04F340EA0300294630BD21FA13
:1005600004F0294630BD94F0000F83F4801306BFD9
:1005700081F480110134013D4EE77FEA645C18BFCD
:100580007FEA655C29D094EA050F08BF90EA020F64
:1005900005D054EA000C04BF1946104630BD91EA5C
:1005A000030F1EBF0021002030BD5FEA545C05D15F
:1005B0004000494128BF41F0004130BD14F580049E
:1005C0003CBF01F5801130BD01F0004545F0FE4112
:1005D00041F470014FF0000030BD7FEA645C1ABF47
:1005E000194610467FEA655C1CBF0B46024650EA7E
:1005F000013406BF52EA033591EA030F41F40021AA
:1006000030BD00BF90F0000F04BF0021704730B52F
:100610004FF4806404F132044FF000054FF0000104
:1006200050E700BF90F0000F04BF0021704730B5C5
:100630004FF4806404F1320410F0004548BF40429A
:100640004FF000013EE700BF42004FEAE2014FEAEF
:1006500031014FEA02701FBF12F07F4393F07F4FCA
:1006600081F06051704732F07F4208BF704793F0CD
:100670007F4F04BF41F40021704730B54FF46074E0
:1006800001F0004521F000411CE700BF50EA0102E3
:1006900008BF704730B54FF000050AE050EA01028C
:1006A00008BF704730B511F0004502D5404261EBFC
:1006B00041014FF4806404F132045FEA915C3FF43D
:1006C000D8AE4FF003025FEADC0C18BF03325FEADA
:1006D000DC0C18BF033202EBDC02C2F1200300FA8B
:1006E00003FC20FA02F001FA03FE40EA0E0021FAB0
:1006F00002F11444BDE600BF014900200CF000BA2D
:1007000011200008F0B59DB04C22002109A820F06E
:100710000BF82022002101A820F006F8042008F0A0
:100720008DFB00230093264BDA6A22F00102DA6285
:10073000DB6A03F001030093224B9A6942F44042C2
:100740009A619A6902F440420092009A9A6991046F
:10075000FCD54FF4803303274025052202240826C8
:1007600009A81894CDE909730123CDE90C35A0231C
:10077000CDE914230023CDE91244CDE91644CDE997
:1007800019631B9308F058FE08B172B6FEE73F23C9
:100790002146CDE901374FF48063CDE9030601A876
:1007A000CDE90555CDE9073509F0E2F9014608B173
:1007B00072B6FEE74FF4802209F0EAF81DB0F0BDF2
:1007C00000040058004802582DE9F047BAB0102242
:1007D000002101242DA804251FF0A6FF05F04AFDE5
:1007E0004FF01041BE4B2DA8ADF8B4403094CDE988
:1007F0002E1305F05DFD1A232DA88DF8B5408DF858
:10080000BC3005F055FD02232DA88DF8C2408DF8AF
:10081000B5304FF050432E9318238DF8BC3005F0BF
:1008200047FD03232DA88DF8B5304FF010532E93BC
:1008300012238DF8BC3000238DF8C03005F038FD50
:100840004FF080532DA88DF8B5502E9311238DF8BD
:10085000BC3005F02DFD05232DA88DF8C0408DF886
:10086000B530A04B2E930E238DF8BC3005F020FD43
:10087000284605F00DFD9C4B5A6912F4003211D147
:10088000BFF34F8FBFF36F8FC3F85022BFF34F8F6B
:10089000BFF36F8F5A6942F400325A61BFF34F8F32
:1008A000BFF36F8F904A536913F4803323D1C2F89A
:1008B0008430BFF34F8FD2F8803043F6E074C3F337
:1008C000C900C3F34E335B0103EA0406014646EA5E
:1008D00081750139C2F86052F9D2203B13F1200F23
:1008E000F2D1BFF34F8F536943F480335361BFF3A9
:1008F0004F8FBFF36F8F4FF6FF737C4D2C6814F44E
:10090000004400F0E382013BF8D272B6FEE772B613
:10091000FEE77748774A83610462C0E90026C0E9B0
:100920000253C0E9045308F0A7FB08B172B6FEE712
:1009300040F203132DA98DF8B640ADF8B43004F0A1
:1009400079FF08B172B6FEE704F020FF034608B154
:1009500072B6FEE768484FF44032DFF8A8C1C0E93C
:100960000253C0E900C205F030FD044608B172B67A
:10097000FEE702463946614806F0CAFB142005F03E
:10098000FDFB39462A465D4806F0C2FB0A2005F009
:10099000F5FB2422214617A81FF0C6FE1822214687
:1009A00011A81FF0C1FE342221462DA81FF0BCFE65
:1009B00021462C2220A81FF0B7FE514F4FF0A04334
:1009C0000EA938461095C7E900347723C7E9028598
:1009D000CDE90E3605F046FE08B172B6FEE7CDE968
:1009E0001750CDE91900CDE91B00CDE91D001F907E
:1009F00017A9384606F062F808B172B6FEE721235F
:100A00001C250F2611A9CDE911531923CDE9150095
:100A10003846CDE9136306F014F808B172B6FEE764
:100A20000421374805F0FCFF08B172B6FEE742F238
:100A30001071334806F0CBF9014608B172B6FEE7F3
:100A40002F4805F0ACFD08B172B6FEE74FF4007315
:100A50004FF480794FF4806A4FF480524FF4804114
:100A60004FF400304FF400244FF00208CDE92D93ED
:100A70004FF40063CDF8E480CDE92FA34FF4005389
:100A8000CDE931234FF48033CDE933134FF4802384
:100A90002DA9CDE935034FF080731948CDE93743CF
:100AA00005F08AFF08B172B6FEE705234FF4C87758
:100AB0000126209027902A96CDE921371023CDE9F1
:100AC00023308023CDE925000DEB0301CDE928304B
:100AD0000B4805F0FFFE0146B0B172B6FEE700BF5D
:100AE0001B0000030000041000ED00E00044025869
:100AF000C4010024005000520404002400180258CD
:100B0000E8030024001000525B4805F0D2FE0446C2
:100B100008B172B6FEE73422014620A8574D1FF0F7
:100B200003FEDFF898C14FF000434FF4C97EC5F8CB
:100B300020802846AC8685F83640C5E900C34FF0D2
:100B40008043C5E902344FF4F173C5E90648C5E9AD
:100B500009E340F2931840F2E313C5E90444C5E900
:100B60000B8307F03BFE024608B172B6FEE7FF2199
:100B700022904FF4F073ADF8B0208DF8B2202B9393
:100B8000CDE92510CDE9200707214FF4C060CDE95C
:100B900027014FF050412846CDE9291720A9CDE97A
:100BA000233607F0E7FE044608B172B6FEE72A686E
:100BB0003148936923F00103936105F0E5FF304963
:100BC000304B3148CB60314B0C804B60304B8B60ED
:100BD00004F0D4FB324621462B4804F03FF828238A
:100BE000152221462448009406F001F82DA9224838
:100BF0003794CDE92D44CDE92F44CDE93144CDE9F9
:100C00003344CDE9354405F0D7FE22464FF4487110
:100C1000284607F0DDFE2A681E489369848043F069
:100C2000010393611C4B06620360C0E9054405F0B3
:100C30006BFB08B172B6FEE71848194B036006F06B
:100C4000B5FF08B172B6FEE700F08EFD00F08BFD37
:100C50000AF0FCF9134A002113480AF023FA134B57
:100C6000134A0021186013480AF01CFA124B18604E
:100C70000AF0FEF9FEE700BFE8030024100200249A
:100C8000580100245D57000868010024111D000868
:100C9000491D00086C040024004C025890030024F5
:100CA00000300052F8120208771700088C01002467
:100CB000D4120208ED37000888010024001000500B
:100CC000142200212DA801251FF02EFDD4F8E030BC
:100CD000002241F2083143F480738D484FF000093F
:100CE0000326C4F8E0304FF48078D4F8E0304FF0B9
:100CF000020A082703F480730493049BD4F8E030BD
:100D000043F00203C4F8E030D4F8E03003F002030B
:100D10000593059BD4F8E03043F04003C4F8E0307D
:100D2000D4F8E03003F040030693069BD4F8E0309B
:100D300043F01003C4F8E030D4F8E03003F01003BF
:100D40000793079BD4F8E03043F08003C4F8E03009
:100D5000D4F8E03003F080030893089BD4F8E03027
:100D600043F00403C4F8E030D4F8E03003F00403A7
:100D70000993099BD4F8E03043F40073C4F8E030E1
:100D8000D4F8E03003F400730A930A9BD4F8E030FF
:100D900043F00803C4F8E030D4F8E03003F008036F
:100DA0000B930B9BD4F8E03043F00103C4F8E03020
:100DB000D4F8E03003F001030C930C9BD4F8E0303E
:100DC00043F02003C4F8E030D4F8E03003F020030F
:100DD0000D930D9B06F09CF9002208214D4806F06A
:100DE00097F900224FF480714B4806F091F941F2D7
:100DF00008332DA94648CDE92D35CDE92F9605F0CC
:100E0000FDFF2DA94548CDF8C490CDE92D8ACDE947
:100E10002F9905F0F3FF2DA93E48CDE92D75CDE9B9
:100E20002F5605F0EBFF2DA93B48CDE92D85CDE9E7
:100E30002F9605F0E3FFD4F8D4304A4605212B4322
:100E40007A204FF00408C4F8D430D4F8D4304024C9
:100E50002B400393039B05F0BBF97A2005F0EAF9D8
:100E60002F4A30482DA9136823F0010313604FF473
:100E700000622D4BC0F81C90C0F828908560CDF81A
:100E8000B4A0C0E900352023C0E903834FF4C07348
:100E9000C0E905434FF48053C0E908230723CDE997
:100EA00032AACDE92E38CDE9303609F0F5FD81467C
:100EB00000287FF42CAD04F077FE484604F0C2FE13
:100EC000034600283FF425AD72B6FEE705F016F99B
:100ED000FFF718FCD5F8E030204643F00073C5F862
:100EE000E030D5F8E03003F000730293029B06F087
:100EF0001DF92146204606F027F90C4C4FF6FF73EA
:100F0000226812043FF5DCAE013BF9D272B6FEE76F
:100F10000024025800180258001402580000025819
:100F20000040005290010024404100520044025809
:100F30000268034B9A4201D105F00EB9704700BF19
:100F40000010004072B6FEE70A4B82B00F216FF02E
:100F50000100D3F8F42042F00202C3F8F42000228A
:100F6000D3F8F43003F002030193019B02B005F0C3
:100F70002FB900BF00440258026882B0094B9A4260
:100F80000DD1A3F50063D3F8E02042F40022C3F8AA
:100F9000E020D3F8E03003F400230193019B02B07A
:100FA000704700BF004C02580F4B07B502689A42C9
:100FB00017D10E4B07215A20D3F8D42042F010024B
:100FC000C3F8D4200022D3F8D43003F010030193E7
:100FD000019B05F0FDF85A2003B05DF804EB05F025
:100FE00029B903B05DF804FB001000520044025818
:100FF00010B5BAB004461422002103A81FF094FBD8
:10100000C822002108A81FF08FFB2368B3F1A04F6E
:1010100038D14FF08062002308A8CDE9082309F0F9
:101020002DF808B1FFF78EFF174B002403A91748CE
:10103000D3F8E42042F01002C3F8E420D3F8E4200F
:1010400002F010020192019AD3F8E02042F40072FB
:10105000C3F8E0200422D3F8E03003F400730293D5
:10106000029B0223CDE903230D23CDE90544079319
:1010700005F0C4FE7B202246072105F0A9F87B205D
:1010800005F0D8F83AB010BD0044025800240258C8
:1010900037B53C4B054602689A4270D13A4B022163
:1010A0003A4C4FF0007ED3F8D420DFF8ECC0204655
:1010B00042F02002C3F8D4208022D3F8D43003F0C9
:1010C00020030193019B1123C4E900C30023C4E959
:1010D0000232C4E9073220222361C4E90513C4E9BE
:1010E00009E24FF4A0414FF40032C4E90D33C4E9E2
:1010F0000B1207F0D8FC08B1FFF724FF00222348A9
:10110000114607F05EFD08B1FFF71CFF2C631323A7
:101110001F4A082125644FF4A0401E4CC4E9002357
:101120000023C022C4E9023220222362C4E906124D
:101130004FF00071C4E909124FF42032C4E90B02E8
:101140002046C4E90433C4E90D3307F0ACFC08B110
:10115000FFF7F8FE00220F48114607F032FD08B1F4
:10116000FFF7F0FE6C63002205217920256405F06D
:101170002FF8792003B0BDE8304005F05BB803B02C
:1011800030BD00BF00300052004402582403002448
:10119000C0010052B80200240002005210B5B4B0E1
:1011A0000446C822002102A81FF0BEFA2268184B8C
:1011B0009A422BD14FF000520023152102A8CDE90D
:1011C0000223A1230522CDE90C230223CDE90E330E
:1011D0004FF40063CDE9101308F050FF08B1FFF79A
:1011E000B1FE0C4B58200721D3F8E42042F008024E
:1011F000C3F8E4200022D3F8E43003F0080301939D
:10120000019B04F0E5FF582005F014F834B010BD40
:101210000010005000440258F0B5BFB0044614223C
:10122000002107A81FF080FAC82200210CA81FF097
:101230007BFA2268534B9A4240F0A1804FF0007233
:1012400000230CA8CDE90C2308F018FF08B1FFF724
:1012500079FE4D4B022500240926D3F8D42007A996
:101260004A480A2742F48042C3F8D420D3F8D42055
:1012700002F480420192019AD3F8E02042F0400249
:10128000C3F8E020D3F8E02002F040020292029A74
:10129000D3F8E02042F02002C3F8E020D3F8E020A9
:1012A00002F020020392039AD3F8E02042F0800279
:1012B000C3F8E020D3F8E02002F080020492049A00
:1012C000D3F8E02042F00202C3F8E020D3F8E02097
:1012D00002F002020592059AD3F8E02042F00802DB
:1012E000C3F8E020D3F8E03003F008030693069B30
:1012F0004FF48443CDE90735CDE909440B9605F059
:101300007DFD402307A921480B97CDE90735CDE99D
:10131000094405F073FDC02307A91D480B96CDE9CC
:101320000735CDE9094405F069FD4FF4007307A9BD
:1013300017480B97CDE90735CDE9094405F05EFD67
:101340000C2307A913480B96CDE90735CDE90944CD
:1013500005F054FD042307A90F480B96CDE9073586
:10136000CDE9094405F04AFD4FF4006307A90B4895
:101370000B96CDE90735CDE9094405F03FFD3FB0B7
:10138000F0BD00BF0050005200440258001802583F
:1013900000140258001C025800040258000C0258A5
:1013A000F0B5B9B00021142201A81FF0BDF93F4BE0
:1013B0001968002977D1012208A81A60C0221FF0FD
:1013C000B3F94FF08072002306A8CDE9062308F098
:1013D00055FE08B1FFF7B6FD354B02270026032561
:1013E000D3F8D4200C2401A9324842F48052C3F827
:1013F000D420D3F8D430059403F480530093009B99
:1014000040F2FF63CDE90365CDE9013705F0F6FC55
:10141000602301A928480594CDE90137CDE903658A
:1014200005F0ECFC4FF6837301A924480594CDE93F
:101430000137CDE9036505F0E1FC4FF47F4301A9D5
:101440001F480594CDE90137CDE9036505F0D6FCC9
:1014500048F2331301A91B480594CDE90137CDE9C2
:10146000036505F0CBFC4CF2037301A91648059403
:10147000CDE90137CDE9036505F0C0FC4FF63F0328
:1014800001A912480594CDE90137CDE9036505F0BE
:10149000B5FC012301A90E480594CDE90137CDE93A
:1014A000036505F0ABFC39B0F0BD00BF9404002427
:1014B000004402580020025800040258001002584C
:1014C000001C025800180258000C02580014025860
:1014D000000802581A4B1A6810B582BB194A012439
:1014E00040F2FF6118481C60D2F8D43023F48053D6
:1014F000C2F8D43005F06AFD6021144805F066FD9D
:101500004FF68371124805F061FD4FF47F41114899
:1015100005F05CFD48F233110F4805F057FD4CF221
:1015200003710E4805F052FD4FF63F010C4805F0DF
:101530004DFD21460B48BDE8104005F047BD10BDEC
:10154000900400240044025800200258000402586D
:1015500000100258001C025800180258000C0258D3
:1015600000140258000802580F2810B504468AB02B
:1015700002D901200AB010BD01460022362004F035
:1015800027FE362004F056FE184B694602A81C6060
:10159000174BD3F8E82042F01002C3F8E820D3F844
:1015A000E83003F010030193019B08F04DFC079B0A
:1015B000C3B908F025FC0F4C0F4B236040F2E73312
:1015C000E3600E4BB0FBF3F001380023606020466F
:1015D0002361A36009F060FC0028CAD1204609F00D
:1015E00003FBC7E708F00CFC4000E4E774000024AC
:1015F00000440258980400240010004040420F00AC
:10160000FEE7FEE7FEE7FEE7FEE77047014809F068
:101610002DBB00BF98040024014807F04EB900BF5D
:1016200010020024014804F00FBF00BF040400248E
:10163000014806F0F3BF00BF90030024044808B53A
:1016400007F044FB0348BDE8084007F03FBB00BF7C
:10165000B802002424030024014805F0B8B800BFF4
:10166000E80300240120704708B51FF011F9162384
:1016700003604FF0FF3008BD08B51FF009F91623CD
:101680000360FEE770B50D4614460E46731B9C4280
:1016900001DC204670BDAFF3008006F8010BF5E7D2
:1016A00070B50D4614460E46731B9C4201DC204665
:1016B00070BD16F8010BAFF30080F5E74FF0FF3077
:1016C00070474FF4005300204B6070470120704773
:1016D000002070470B4A0346116810B509B90A4942
:1016E0001160106809490A4C0344091B8B4206D952
:1016F0001FF0CEF80C2303604FF0FF3010BD1360D5
:10170000FCE700BFE4040024785D02240000082404
:1017100000100000DFF834D004F080FC0C480D49C4
:101720000D4A002302E0D458C4500433C4188C423C
:10173000F9D30A4A0A4C002301E013600432A242A2
:10174000FBD31FF0ABF8FFF73FF870470000082409
:10175000000000243C010024A84802083C010024A9
:10176000745D0224FEE7704708B501F0B5FCBDE8E2
:10177000084001F039BC01F0B1BC406870474160DD
:101780007047521A02EB5302B2FBF3F070470000AD
:10179000024BC0681B685B6A58437047E80400242A
:1017A0007047000037B51E4A4FF0804105464FF0A4
:1017B000FF30D2F8E83043F00103C2F8E830D2F845
:1017C000E83003F001030193019B164B19600021DF
:1017D000D86019619960596001215961D36910225B
:1017E00003F0700392FAA2F2B2FA82F2D3400E4AE8
:1017F000D35C83B908F0E2FA044608F017F9B0FBAD
:10180000F4F0E860074809F047FB064803B0BDE87C
:10181000304009F0AFB908F0F3FA4400EDE700BF3B
:1018200000440258E8040024EC37020810B50446CE
:1018300010211EF0EDF8204610BD38B503680446AF
:101840001B6931B18568984763685B1B034463601B
:1018500038BD9847A060FBE770470000F8B50A4B19
:101860000F4616461D7815B900252846F8BD074CC9
:101870000020214604F076FB2368002BF4D0636837
:101880003B60A3683360F0E744050024340500247E
:1018900010B5044604211EF0BBF8204610BD000020
:1018A00008B50E4B4FF44872002019684FF4F073DE
:1018B000C1E900230C23C1E9023004F0C3FA084B4C
:1018C00010B901221A7008BD1B78002BFBD1054B03
:1018D0002E21054A05481EF033FC00BF40050024B8
:1018E0004405002444130208571302088113020818
:1018F000032825D8DFE800F0020B131B114B082149
:101900001A68B2FA82F252090F4805F001BC0D4B79
:101910004FF480715A68B2FA82F25209F4E7094B27
:101920004FF400719A68B2FA82F25209ECE7054B63
:101930004FF480710548DA68B2FA82F25209E4E79E
:10194000704700BF480500240024025800140258C4
:10195000032825D8DFE800F0020B131B114B0821E8
:101960001A68003A18BF01220F4805F0D1BB0D4B91
:101970004FF480715A68003A18BF0122F4E7094B0E
:101980004FF400719A68003A18BF0122ECE7054B4A
:101990004FF480710548DA68003A18BF0122E4E785
:1019A000704700BF48050024002402580014025864
:1019B000032811D8DFE800F00206090C08210748C7
:1019C00005F0ABBB4FF48071F9E74FF40071F6E717
:1019D0004FF480710248F3E7704700BF00240258BB
:1019E0000014025808B5032815D8DFE800F0020AF1
:1019F0000D100821094805F085FB431E5842584147
:101A000008BD4FF48071F5E74FF40071F2E74FF431
:101A100080710348EFE70020EFE700BF0024025881
:101A20000014025870B5084D00240126E0B2FFF7FB
:101A3000D9FF18B12B68012B18BF2E600134043573
:101A4000052CF3D170BD00BF48050024012380F8A8
:101A5000781080F879307047002070474164003971
:101A6000024B18BF01211970704700BF5751022463
:101A700000207047836B0BB10846184770474FF63C
:101A8000FF707047406803689B691847014B1868EE
:101A9000704700BF6C050024704701F01CBC01F0CA
:101AA000ABBB01F07DBD01F06FBD000010B5044679
:101AB00001F032FD94F84B3013B1024B01221A7041
:101AC00010BD00BF0C00002401F09EBB10B5044601
:101AD0000CF0D0FC23682046D3F8AC30BDE81040B1
:101AE000184710B504460CF04DF860680368BDE86F
:101AF00010401B6918470BF01BBF10B504467C2132
:101B00001DF086FF204610BD024B00221A700BF01C
:101B10004BBF00BF0C00002438B50446064D01F051
:101B20009BFB0023284684F84A30FFF73BFE012345
:101B3000256184F8703038BD5C05002403680446D4
:101B400007B5D3F880309847236820469B6F9847A5
:101B500000F05CFF236820461B6F98470021292373
:101B600015220548009105F042F800F04FFF236868
:101B700020461B6F9847F8E7E803002490F83410DC
:101B80000D4B10B590F878401A788C4209D03AB9CC
:101B90000A490B4A08881488108001220C801A70A8
:101BA00010BD002AFCD0064A0449148808880C801D
:101BB00010800022F3E700BF505102244E5102244E
:101BC0004C51022408B5094B1B888B4203D8084BA3
:101BD0001B88934205D9074B9E21074A07481EF0F0
:101BE000AFFA074B1980074B1A8008BD4C510224ED
:101BF0004E510224E4130208471402088A14020812
:101C00005251022454510224034690F87A0018B12C
:101C1000586803681B6818477047000070B50D4688
:101C200019460B4B1D6035B90A4B40F2D2210A4AC6
:101C30000A481EF085FAC0E90F52003A084B18BF57
:101C400001221A700368BDE87040D3F88C30184741
:101C50006C050024DD140208151502088A14020818
:101C600056510224C0E90112C3604FF48072002370
:101C7000C0E912231D4A038580F82A30C362038617
:101C800080F85830436680F87030436770B5C0E91B
:101C90001A23BDF81050164ABDF814602035C0E96B
:101CA0000433C0E90633C0E90833C0E90E33C0E9A4
:101CB0001033C0E91433C0E917338267ADB20D4A5F
:101CC000B54210600C4A15800C4A158028BF0025CB
:101CD0000B4A38BF012516800A4A80F83450168016
:101CE000094A1370094B036070BD00BF0100000179
:101CF00000000101585102244C5102245251022487
:101D00004E51022454510224505102246C150208F1
:101D1000012B13B50ED8D35C152200930B46014658
:101D2000084804F064FF18B16FF0070002B010BD5E
:101D30000020FBE7CDE9001201463922014804F0FA
:101D400067FFF0E7E80300241FB5CDE90112062183
:101D500000910146054804F0BBFF002814BF6FF056
:101D60000700002005B05DF804FB00BFE803002475
:101D70001FB54FF201430B4C39220021ADF80C3056
:101D800003AB2046019344230093022304F040FF59
:101D90000021352315222046009104F028FF04B0CD
:101DA00010BD00BFE803002408B5FFF7E1FF0C4BAE
:101DB00002221B68C3F810240122C3F81024D3F8B0
:101DC000082442F00102C3F80824D3F8082442F0A2
:101DD0000202C3F808240322024B5A6308BD00BF65
:101DE000E803002400100050074B07B5197839B9F3
:101DF000012206481A7029231522009104F0F7FEEB
:101E000003B05DF804FB00BF58050024E80300247C
:101E1000064B07B501932A2339220021009304239E
:101E2000034804F0F5FE03B05DF804FB080000244D
:101E3000E8030024064B07B501932A233922002129
:101E400000930423034804F0E3FE03B05DF804FBB1
:101E500004000024E803002438B5144D0446002093
:101E6000FFF746FD2A6892F86A30013382F86A303B
:101E700000F0C0FD0E4B2A6819781B7882F84A10D2
:101E800073B10C4D2B7803F0FF024BB90A4B1A606B
:101E9000FFF7BEFF204604F09AFE01232B7038BDE9
:101EA0000020BDE83840FFF753BD00BF5851022461
:101EB0000C00002474050024700500242DE9F04373
:101EC000484E85B004463378002B00F08880DFF858
:101ED0003891DFF83881D9F80050434F002D3ED1BA
:101EE0000120424E04F04AF923680095D3F80424F7
:101EF000386822F0080200F59660C3F80424D3F88D
:101F0000042402F008020092009AD8F80020C2F8D7
:101F1000AC0037480661374E46613748C2F8880042
:101F20003648C2F8B000516A41F001015162019592
:101F3000D3F8042442F00802C3F80424D3F804348C
:101F400003F008030193019BFFF774FF0123204670
:101F5000C9F8003005B0BDE8F04304F038BE0368AE
:101F6000002538680295D3F80424254C22F0080295
:101F7000C3F80424D3F8042402F008020292029A5F
:101F8000D8F80020C2F8AC001948046104F101142B
:101F900044611948C2F888001848C2F8B0002846C1
:101FA000516A41F0010151620395D3F8042442F0D3
:101FB0000802C3F80424D3F8043403F0080303939D
:101FC000039BFFF7C5FCFFF70FFF0E4B357018683A
:101FD00028B103681B6A05B0BDE8F043184705B097
:101FE000BDE8F083740500246C050024E201B20111
:101FF00000100050E301920103009201B304C009F4
:10200000E2019201585102247005002410020024BC
:10201000014608B5034B186801B101210CF044FAE0
:10202000012008BD58510224034B00225A609A60D7
:10203000024A1A60704700BF5C050024241302089E
:102040004069704790F840007047036B23B9C06A3D
:10205000003818BF01207047012070478068704722
:102060007047043010B50C460FC884E80F0010BD4F
:102070007047000008B5034A40F2C511024B0348FF
:102080001EF05EF83C160208EB32020897160208B2
:1020900010B5044648211DF0BBFC204610BD0000D1
:1020A00000220E4B10B5114604460360C26380F84F
:1020B0004020C0E90522C0E90722C0E90922C0E9A1
:1020C0000B22C0E90D22C0E90322C0E90122012050
:1020D00009F0A6F8024B1860204610BDC41802088B
:1020E0009405002410B40C4611461A46036B3BB10C
:1020F000C36B406BE41A20445DF8044B1EF01CBB1C
:10210000C06AF8E7036B10B573B1C36B426BC91AB1
:102110005318525C98785C78000440EA042010431D
:10212000DB7840EA036010BDC26A5318525C5978EC
:102130009878000440EA0120F1E7036B43B1C36BD8
:10214000C91A436B5A18585C527840EA022070470B
:10215000C36A5A18585C537840EA0320704700005D
:1021600070B50446006B0D461646D8B1A36B93427A
:1021700008D209230D4A9F210D4884F840300D4BA9
:102180001DF0DEFF0368DB689847206B3246616B09
:1021900003681B69984710B90D2384F84030606BC1
:1021A000E56370BDE06A0844FBE700BFFD16020866
:1021B00097160208EA1602082DE9F8434369044617
:1021C0002BB9224BE521224A22481DF0B9FF0822F3
:1021D0008169FFF7C5FFA16943F2300646F2643713
:1021E00004312046FFF78EFFA3691844A36A00F16B
:1021F00008029A4206D3012300206361236AA36187
:10220000BDE8F883636900F1090108222046013323
:1022100021F001016361A161FFF7A2FFD4F81890DA
:1022200020464946FFF789FF09F102018046204612
:10223000FFF783FF09F1040105462046FFF762FF1F
:10224000B045D1D1BD42CFD10120D9E73F17020817
:1022500088170208971602080129036838BF012170
:10226000DB6A70B50D4604469847A84204D223683D
:102270002046DB6A984705466B1EE6691022204619
:1022800006EB031606F10801FFF76AFF06F11001DD
:102290002046FFF737FF236A043B0344C4E9055394
:1022A00070BD0000002148222DE9F0410446816103
:1022B00080F84010FFF754FFA6690423634A3146B3
:1022C0002046FFF70FFF48B10323614A40F22D116A
:1022D00084F840305F4B60481DF032FF06F1080182
:1022E00004235E4A2046A161FFF7FCFE38B10423B7
:1022F000574A40F2351184F84030594BEBE706F16C
:102300000C010423574A2046A161FFF7EBFE074664
:1023100038B105234E4A4FF49E7184F84030524B39
:10232000D9E706F110012046FFF7ECFE054620B97B
:102330004E4B4FF4A171464ACDE706F11408042331
:102340004B4A20464146FFF7CDFE002849D00623E0
:1023500084F840300423474A06F118012046FFF76D
:10236000C1FE00283FD0072384F840304544424F47
:102370000C2220462946FFF7F3FE05F10806042348
:102380003A4620463146FFF7ADFE94F8403000282B
:1023900048D0002B48D1A36AAB4249D805F10C03C1
:1023A00004352046A3612946FFF7ACFE3044294698
:1023B00060622046FFF7A6FE06440422204631460E
:1023C000FFF7CEFE04232D4A31462046FFF78AFE52
:1023D000002838D10123E6616361A3692362BDE867
:1023E000F0810127B6E7002FC0D006F1200120467A
:1023F000FFF788FE4FF47A7306F13001B0FBF3F07B
:1024000060602046FFF77EFE06F14001A060204696
:10241000FFF778FE06F14401E0602046FFF772FE08
:102420002061A3E7002BB9D00A2384F84030D6E717
:10243000291D2046FFF766FE85190C2220462946F5
:10244000FFF78EFE99E70B23EFE700BFBB170208EB
:10245000D9170208C01702089716020806180208C2
:102460000B18020823180208281802083E18020850
:102470004A1802084F18020854180208591802088E
:10248000C0E90A2100220263FFF70CBF10B5002348
:1024900004460846E3620B6821639B689847A06284
:1024A0002046BDE81040FFF7FDBE000037B5144CD4
:1024B000144D23600024144B1C60144B1C60144BFF
:1024C0002C601C60134B1960134B1A60134B1C607B
:1024D000134B2A684FF4C0751C701C74C3E9024486
:1024E000C3E9064403EB02130E4AD2686A43009222
:1024F0004FF450425B6805F007FD204603B030BD45
:10250000C09B00249C9B0024AC9B002490050024CD
:10251000BC9B0024B49B0024B89B00249805002495
:1025200010000024780500244B68012B15D1CB68DE
:102530001A071EBF23F00F031033CB608B681807F8
:102540001EBF23F00F0310338B60CB688A681B0912
:10255000120953430E4A13607047022B0ED1CB6809
:102560001A0703D023F00F031033CB608B685A0790
:102570001EBF23F0070308338B607047002BFCD18C
:10258000CB685807F2D023F007030833EDE700BF0C
:10259000A49B00240B4A13680B4430B413600A4A0E
:1025A000126893420CD2094CD21A2568B2F5504FEA
:1025B000294428BF4FF45042216030BC05F006BDCD
:1025C00030BC7047BC9B0024B89B0024B49B002403
:1025D000F8B5204C0121204D064623681F4F1B01F2
:1025E000E954236805EB03139A601D4B19682268B0
:1025F00005EB0212D1601A68F9680A441A60236870
:10260000013323602368012B01D900232360236851
:102610001B01EB5C33B10221304605F0A9FC114BE4
:1026200001221A6022683046FB6805EB02154FF460
:10263000C07269685A4305F0CCFC0B4B1B681A7AD0
:102640003AB99B7A2BB9094B1868BDE8F84008F0F5
:102650005DBEF8BD9C9B002410000024780500247A
:1026600098050024AC9B0024A09B00249405002422
:1026700072B6FEE7014B01221A607047B09B00243E
:1026800038B5164D04462B6813B1154B1B681BBBA0
:10269000144B1868037A63B9134B144A1B681B0167
:1026A000D35C012B05D10E4B1B6813B903681B6962
:1026B00098470F4A1368012B0CD10E4B0B491B682E
:1026C0001B01CB5C33B92B6823B902212046136070
:1026D00005F0ADFE022038BD0120FCE7B09B0024D0
:1026E0008C050024A09B00249005002410000024E9
:1026F000AC9B00249C9B002470B50546002A35D075
:10270000002B33D01A4803240461EC6826074FF4E9
:10271000166618BF24F00F04466018BF103404601A
:102720002409C4602C6914F00F0418BFC4F110040C
:1027300084601048FFF7BAFE0F4C6A6C0F4B0D4DCA
:102740001A602846FFF79CFF20602368022B05D102
:102750000B4B4FF0FF31186808F0ACFD2368012BDC
:10276000EFD10023074A1360074A136070BD00BF12
:102770007805002490030024A89B0024A09B00243B
:1027800094050024B09B00248C0500242DE9F04F13
:102790009946436985B004460F4690462BB9294BAC
:1027A000B121294A29481DF0CBFC08228169FFF795
:1027B000D7FCA66920463146FFF7BFFCB11C834613
:1027C0002046FFF7BAFC311D82462046FFF79AFCEF
:1027D00006F10801A36A054642189A4226D243F23E
:1027E00030039B4517D146F264339A4513D190B11B
:1027F0000246A1612046FFF7B3FC0E9B01462A4624
:102800002046CDF80080CDE901933B46FFF774FFE9
:10281000636901336361A3692B4405B9083301334C
:10282000626A23F001039342A36109D101230120CD
:102830006361236AA36180F0010005B0BDE8F08FF9
:102840000020F8E73F1702085E18020897160208F2
:10285000F8B50446816916460822FFF781FCA7698E
:102860002046391DFFF74EFC07F1080102460546D8
:102870002046FFF775FC01466EB12A46074C084D0D
:1028800033460748FFF712FE2846FFF7F9FE20609F
:102890002368002BF8D00120F8BD00BFA89B0024BE
:1028A000900300241B4AD0F80CC0F0B54FEA0C137B
:1028B00014685568184E194FB3FBF4F104FB11333B
:1028C0004D43116901FB03F401232D0173633F683C
:1028D000D368FF1A1905BC4517D39268C2F11002DC
:1028E0000A4372640E4AC3F1320311681B010A4A9B
:1028F00021442944D163136400231361094BD3613C
:102900004368D360084B1360F0BD41F0100171645F
:10291000E8E700BF7805002400100052A49B0024C3
:10292000C09B00240B0009FF010201000C4B002298
:10293000027019688260013119601968012900D993
:102940001A60084B084A1B68D2689B1AC2689A42F0
:1029500002D3064B01221A60054B186808F0D6BC5A
:1029600090050024A49B0024780500248C050024F5
:10297000940500240121002208B5084608F050FC07
:102980000A4B186028B90A4B28210A4A0A481DF048
:10299000D7FB00220421012008F0E1FC074B18605E
:1029A00018B9074B2C21034AF0E708BDC89B002447
:1029B000001902084919020878190208C49B00246A
:1029C000C1190208024B4FF0FF31186808F072BCC1
:1029D000C89B0024014B186808F098BCC89B0024D1
:1029E000024B0021186808F065BC00BFC89B00249A
:1029F000FFF7F0BF0023034803491A46006808F0B8
:102A0000E9BC00BFC49B00243000002413B50023A0
:102A1000074C01A91A46206808F00DFD4FF0FF335E
:102A2000002201A9206808F006FD02B010BD00BF19
:102A3000C49B002403685B6C18470120704740F278
:102A4000EF30704710B504464FF0FF31D0F8A40DB9
:102A500008F0A4FB606803681B68984778B9637A3C
:102A60006BB1237A5BB984F8A03D204623685B6A8A
:102A70009847D4F8A40DBDE8104008F0B2BB0B494C
:102A80000B4A0B681B01D35C012BF2D1207A002882
:102A9000EFD1A07A0028ECD1086884F8A03D02EBC1
:102AA00000102372FFF7FEFEE3E700BF900500244D
:102AB00010000024054B4FF080620360044BC3F804
:102AC0008820BFF34F8FBFF36F8F70475C1B0208E6
:102AD00000E100E010B5044640F6A851FFF7EAFF18
:102AE00020461CF095FF204610BD00000F4B82B021
:102AF000D3F8D42042F01002C3F8D420D3F8D42065
:102B000002F010020192019ADA6F42F01002DA67C5
:102B1000DA6F22F01002DA67054B064A1A62064B9A
:102B20004FF080629A6002B0704700BF00440258C4
:102B300004040024812D000800E100E008B50A2803
:102B400009D8DFE800F006100E0808080810101079
:102B50001000022008BD054B8721054A05481DF0DD
:102B6000EFFA0020F6E70120F4E700BF031A02089D
:102B70001E1A0208691A020838B50C46887FFFF74A
:102B8000DDFF124BA58AE28A586342EA05422169B9
:102B90005A64628BD963521B1A642568082D0ED1C2
:102BA0009A611A6158620A4A207F42EA0062DA6139
:102BB000E2681A62074A5961D9601A6038BD00227A
:102BC000D8611A61E2689A63034AF6E7001000527E
:102BD00009000100010202000102030008B50B28F0
:102BE0000BD8DFE800F00612100A0A0A0A080808E3
:102BF0000808022008BD0520FCE7054B6621054AB0
:102C000005481DF09DFA0020F4E70120F2E700BF1F
:102C1000031A0208B01A0208691A02082DE9F843DB
:102C20004F7F89463846FFF7D9FF99F81E508046F6
:102C30002846FFF7D3FF06462846FFF77FFFB9F87F
:102C40001410B9F81A40B9F81820454B641A521AF2
:102C50001C649C611A61B9F81620586342EA01426B
:102C6000D9F810105A64D9F80420D963DA60D9F879
:102C7000004099F81C20802C22D00FD8202C66D040
:102C8000402C64D0042C5CD048EA0260344BAF4244
:102C900040F40030D86160D0324A3FE0B4F5807F24
:102CA00004D0B4F5007FEFD12F4800E02F4840EA70
:102CB0000262DA61D9F80C201A625E6259612CE076
:102CC00048EA0260D9F8084040F40030D8615E62FA
:102CD0005961211DD962217841B1012921D0244BAC
:102CE00040F20111234A24481DF02AFADA6961886A
:102CF00022F47F42013922F0100242EA0122DA6115
:102D00000122174BD96941F02001D961D96989069F
:102D1000FCD410219960002ABED0184A1A60BDE880
:102D2000F883D969FF3A608821F47F4118BF0122F6
:102D3000013821F0100141EA002141F01001D96170
:102D4000DFE748EA026242F40032DA61B5E748EAB6
:102D50000262034B42F40032F7E740F20122DDE762
:102D60000010005201020100090002000A000200E6
:102D7000FA1A0208141B0208691A0208010202006A
:102D8000024B1B68586803685B6918475851022456
:102D900090F8A03D10B50446D3B903689B6A9847E4
:102DA00019491A4A0B681B01D35C012B2AD1184818
:102DB000006838BB207A28BBA07A18BB086884F862
:102DC000A03D237202EB0010BDE81040FFF76ABD82
:102DD000037A43B1002303720B4B18680B4B03EBD0
:102DE0000010FFF7A3FD606803681B68984748B9A7
:102DF000637A3BB1236884F8A00D20465B6ABDE886
:102E00001040184710BD00BF90050024100000249A
:102E10008C05002470B504460E4B0C300026254668
:102E2000602260602672667245F8203B29460BF0EE
:102E30007FFC04F55A63EE6024359D42FBD184F893
:102E4000A06D0020C4F8A46D08F073F9C4F8A40DB7
:102E5000204670BD5C1B0208034B1A68D207FCD4E5
:102E600023229A60704700BF0010005230B5104C0A
:102E70002568ED07FCD423250904FF2BA5604FF03E
:102E8000010541EA050165636164E0630CD009490D
:102E900022F07F42656241EA0363E361064B2262EE
:102EA0006061E060236030BDE561044BA263F9E737
:102EB000001000520900010001000200010003009F
:102EC000012070470C2070470C2303FB01000830E1
:102ED00070470C2303FB0100083070470120704746
:102EE0004FF44A7070474FF44A7303FB01000830F7
:102EF00070474FF44A7303FB01000830704701200C
:102F000070471020704700EB01100830704700EB4D
:102F1000011008307047084600F040BE034B10B562
:102F2000044603600AF05BFA204610BD141C020838
:102F300010B50446FFF7F2FF142120461CF068FD8F
:102F4000204610BD034B10B5044603600AF047FA53
:102F5000204610BDE01B020810B50446FFF7F2FF43
:102F60004FF44C7120461CF053FD204610BD00006C
:102F7000034B10B5044603600AF031FA204610BD39
:102F8000AC1B020810B50446FFF7F2FF18212046DB
:102F90001CF03EFD204610BD084B10B504460360F2
:102FA00000F55770FFF7BAFF04F12C00FFF7CAFFD6
:102FB00004F11400FFF7DCFF204610BD481C020896
:102FC00008B50248FFF7E8FF08BD00BF80AA00244B
:102FD00010B50446FFF7E0FF4FF49A6120461CF05D
:102FE00017FD204610BD00002DE9F34100F050FC14
:102FF0000024054600F050FC2346014622462846A0
:10300000009412F003FD274B274A2046274D1A60F3
:1030100000F0D0FF264B274A27489A6012F0A2FB07
:103020002B68BFF35B8FDB0735D428461CF0F2FC1E
:1030300088B3224C224B04F55D7604F1140004F1B0
:103040002C0804F5577723606060C4F80880E760B7
:1030500026610AF0C5F91B4B404663610AF0C0F9CE
:10306000194B3846E3620AF0BBF9184B04F55C7063
:10307000C4F85C3301F022F8224604F55C71304656
:1030800001F012F8304600F089FD11481DF076F885
:1030900028461CF0CBFC0F4802B0BDE8F041FEF71B
:1030A0003BBD00BFBC510224489C00247CAA0024E4
:1030B000689C00244C9C00243400002480AA002436
:1030C000481C0208AC1B0208E01B0208141C020882
:1030D000C12F0008CC9B0024704700000148FEF778
:1030E0002DBD00BFCC9B002473B50E4C0E4B0F4E74
:1030F00020460F4D3360FFF78DFE284615F03AFD50
:103100000C4810F019FD4FF448734FF4F07221464B
:103110000948CDE9003233462A46FEF7A3FD02B046
:1031200070BD00BFD09C0024D413020878AA0024EC
:10313000689C00244C9C0024CC9B00240148FFF791
:10314000B9BC00BFD09C002400207047818070472C
:10315000C180704701817047418170477047704757
:1031600070477047704710B4C4880368121B848886
:103170005B6D091B12B25DF8044B09B218474FF69C
:10318000FF7383814FF0FF3303621368C3611060E4
:103190007047002070478B888380012070477047FC
:1031A00080F82610704790F826007047002210B56E
:1031B000B1F90840B1F90A10028042808480C180D0
:1031C00010BD0022028042808280C2807047017759
:1031D000704780ED080A704780F82410704780F827
:1031E0002510704701207047983070478C30704729
:1031F0008430704770470000024B902283F85A23B6
:10320000704700BF00E100E070470163C0E90D2195
:10321000704770477047704700EB81001146406867
:103220000368DB68184780F83C10704710B5044607
:1032300048211CF0EDFB204610BD10B504462C21A2
:103240001CF0E6FB204610BD10B50446BC211CF066
:10325000DFFB204610BD000038B504460AF0BDFB78
:1032600023685D6E0FF03AFB01462046A8472368AD
:1032700008492046D3F8885000231A46A8476368B7
:10328000054A5364054B5A60054A1A639A63054A16
:103290005A6338BD009411D058B0002410B00024F7
:1032A000000000D00094110038B504460D46406C73
:1032B0004FF0FF3107F072FF606C07F092FF24239C
:1032C00003FB0545002385F8283094F828300BB916
:1032D000236BA36338BD0AF031BB0AF092BC90F8AF
:1032E000252012B103685B6918477047124A536979
:1032F000DB0370B51ED50023C2F88430BFF34F8FB7
:10330000D2F8803043F6E074C3F3C900C3F34E3300
:103310005B0103EA0406014646EA81750139C2F8F9
:103320007452F9D2203B13F1200FF2D1BFF34F8F2B
:10333000BFF36F8F70BD00BF00ED00E008B531B185
:10334000044B4FF4B871044A04481CF0F9FE90F89D
:10335000290008BD541C0208681C0208F21D02085E
:1033600010B531B1064B4FF4B571064A06481CF052
:10337000E7FE406811460368BDE810401B6B184724
:10338000541C02083C1E0208F21D020808B529B1AF
:10339000034B7921034A04481CF0D2FEC06808BDE3
:1033A000541C0208EA1F0208F21D020810B5044668
:1033B00029B1194BA221194A19481CF0C1FE052A4E
:1033C00015D8DFE802F0031115171C2240680368C6
:1033D0001B69984758B1012384F8293084F82C30B0
:1033E0000023C4E9043302E0002380F8293010BD33
:1033F0000362F5E70362012380F82A30F0E7002337
:1034000080F8293001230362F1E7003B18BF012354
:1034100080F82D30EBE700BF541C02089F21020802
:10342000F21D020810B50C4611461A462CB1064B87
:103430009021064A06481CF083FEC4604068036879
:10344000BDE810409B681847541C0208732302080B
:10345000F21D020808B529B1054B8221054A06482C
:103460001CF06EFEC0E90411C0E9063208BD00BFC1
:10347000541C02084E250208F21D020890F83D3047
:1034800010B5044653B14FF0FF31406C07F086FE93
:10349000002384F83D30012384F83E3010BD90F8BD
:1034A00025201AB190F8242002B11860704700005E
:1034B00010B50446104629B1134BD021134A1448C5
:1034C0001CF03EFE94F8293033B1124B1B6893F880
:1034D0006B2063691344636194F82B300BB90120AE
:1034E00010BDA368036303685B699847002394F8E1
:1034F0002C0084F82B300028F1D194F82D30002BCB
:10350000EED184F82900EBE7541C02080A270208D0
:10351000F21D02085851022470B51A4C05460AF0F3
:103520004FFA94F8293013B994F82A30ABB1E16915
:10353000D4E90532534322694A4393420DD394F8A8
:103540003C0038B19B1AB3FBF1F2994298BF02F1EB
:10355000FF326262012384F82E300123206C84F84C
:103560003D3007F0D3FE94F83E302BB1606C07F08D
:1035700038FE002384F83E3068680368BDE8704078
:103580001B69184710B00024044B4FF08062C3F849
:103590008820BFF34F8FBFF36F8F704700E100E0CB
:1035A000024B4FF080629A60704700BF00E100E07C
:1035B000F8B5034690F82800D8B94FF480729E6B96
:1035C0000125D8609A8506F58C12186102F5A05283
:1035D00058619861D861186258629D6283F82E0024
:1035E000D3E90C473C44A2420AD90B4B52210B4A67
:1035F00003E00B4B40F2C5110A4A0B481CF0A0FD3A
:103600009E609A634FF4487381F83450CB864FF430
:10361000F07308630B87F8BD622A02089D2A02082E
:10362000AB280208DB280208F21D0208002370B54F
:10363000124E04468380124B0360336893F858207F
:103640000AB1D86C00B998680368DB6A9847431ED2
:103650005D425D413368D86C30B10368DB6A9847DE
:10366000012808BF45F001052DB9064B2721064A60
:1036700006481CF065FD204670BD00BF585102246D
:10368000502D0208402C02089E2C0208D72C02085C
:1036900070B5244E3568BFF35B8F15F001053FD13F
:1036A00030461CF0B7F900283AD01F4C1F4B04F1EC
:1036B00034002561E584A562A585C4E90035C4E927
:1036C000025510F098FC04F158000CF0B7FB184BB1
:1036D0002046A365174B40F8843BFFF7A7FF164B26
:1036E0001648C4F884302433C4F89050C4F88C30A1
:1036F0006423C4F89C50C4F8A850C4E928350023BA
:10370000C4F8AC30C4F8B030C4F8B430C4F8B83041
:103710000B4BC4F898301CF031FD30461CF086F994
:10372000014870BD50AF002454AF00247C3B020818
:10373000702D0208E82D0208C83B0208F531000888
:10374000003C02082DE9F743044601264FF41667B2
:103750004FF0FF31206C07F0ADFD4FF0FF31606C92
:1037600007F01CFD94F82E3043B36568D4F8208030
:103770002B6884F82B60B8F1000F23D05B6A4146B8
:1037800028469847002323622B684FF4487200971D
:103790002846D3F814804FF4F073A168C04723691A
:1037A00084F82C0001332361F0B12B6828469B6A12
:1037B000984701380023E06084F82E30606C07F0F1
:1037C00010FDC5E7626A002ADED02846D3E90993D6
:1037D0009847616A01442846C8472369626AC4F869
:1037E000248013442361CFE70120E3E7014808B5B3
:1037F000FFF7A8FF10B0002438B514480025FEF7E5
:103800004FFC134C134B2A462946012023604FF4EA
:103810008073A563A387A38584F83E5084F82E5057
:10382000C4E90C55C4E91055C4E90155C4E9035570
:10383000C4E90555C4E90755C4E9095507F0F0FC8A
:103840002064284607F075FC606438BD58B0002439
:1038500010B00024342E0208704710B5044604212D
:103860001CF0D6F8204610BD012908B506D0022963
:1038700008D059B900F0EAFB006808BD00F0E6FB8B
:103880004068FAE700F0E2FB8068F6E70020F4E722
:1038900000487047842E02080220704713B50024A8
:1038A00051B1036801AA01948DF803409C680DF1A1
:1038B0000303A04702B010BD0846FBE7C08970476C
:1038C000008A7047C088704780887047807A00F00F
:1038D0007F007047807AC009704700207047000061
:1038E0009FED010A704700BF00000000704710B54F
:1038F000044608211CF08CF8204610BD7047704724
:1039000000F598730868496803C3704770477047AB
:103910004160704770470000064BC0F84801C0F88E
:103920004C310023C0F8503100F5A273C0F840318B
:10393000704700BFD93900080123037270477047F0
:10394000704710B441680346C2689B68541001EB8D
:103950006200D20748BF0A595DF8044B48BFD358EC
:1039600018470346406830B19A681AB9D86800F021
:10397000010070470120704710B504460C211CF06F
:1039800047F8204610BD10B5044610211CF040F841
:10399000204610BD10B504464FF4AE711CF038F847
:1039A000204610BD10B50EF099FF0368BDE8104029
:1039B000DB6B184710B50446D0F8400158B10368D6
:1039C000DB68984738B1D4F8400103689B68984792
:1039D0000023C4F8403110BD2DE9F14FD0E9556AFC
:1039E0000746B06803681B6A9847B0F54A7F05D25E
:1039F000444BA321444A45481CF0A2FB706803686D
:103A00001B6A98470F2803D8414BA4213E4AF2E78E
:103A1000F06803681B6A98470B2803D83D4BA52123
:103A2000394AE8E7DFF8F4900EF058FF04300EF062
:103A30007AFFD9F8000010B10368DB689847D9F81D
:103A4000000010B103681B689847DFF8D480D8F8ED
:103A5000000010B103685B699847D7F83C0110B1CA
:103A600003685B689847D8F8000010B103681B68CA
:103A70009847D7F83C0110B103689B689847F068F5
:103A800000214FF0000B03685B6A9847224B044605
:103A9000C0F804B080F808B059460360B068036805
:103AA0005B6A9847054600F065FC706859460368F4
:103AB0005B6A98470646294600F012FB331DC7F89B
:103AC0003C612846C9F80040C8F80050CAF80030E8
:103AD0002B68C6F808A0DB68EE6398473368304669
:103AE0001B6898472146284610F0E8FE23682046C8
:103AF0001B699847236820465B6901B0BDE8F04F19
:103B0000184700BFBC2E02084A2F02081C300208CA
:103B100071300208143102082C320208A05102242C
:103B20009C510224044B1B6893F858200AB1D86CAE
:103B300000B99868704700BF58510224F8B5044690
:103B400017460E460EF090FF104B00251C602946CC
:103B50000F4B23600F4BC4E951350F4B1868C4E974
:103B600053550368C4E94F559B68C4E95576984797
:103B7000284600F01FFAFFF7D5FF16F0E2F8FFF72E
:103B8000D1FF16F055F92046F8BD00BFAC51022414
:103B9000D8310208C031020858510224064BC0F83F
:103BA0004801C0F84C310023C0F8503100F5A27331
:103BB000C0F84031704700BFD9390008406A7047EB
:103BC000806A704770478B88C069DB0A0A6850F8C2
:103BD00023001044704710B50446BAB1107B68B199
:103BE000537BD27A1B0203F4E0631A43236A03EB8C
:103BF00082031A888A4202D193F9020010BD05D8C7
:103C00000138043380B20028F3D1F7E70020F5E74C
:103C100010B504462C211BF0FBFE204610BD000011
:103C200030B58BB00446BDF860500895BDF85C50C7
:103C300007959DF8505006959DF84C5005959DF8B8
:103C4000485004959DF8445003959DF840500295C6
:103C50009DF83C500195BDF83850009510F088FA59
:103C6000064B20462360159BE361169B2362199B3C
:103C700063621A9BA3620BB030BD00BF50320208D2
:103C8000704770477047704770477047704710B56E
:103C900004464FF43D711BF0BBFE204610BD0000F2
:103CA00070B50446002510F05DFC2B4B2646E563FD
:103CB00004F16C0046F8403B284B2566A566C4E934
:103CC00010354FF48073A4F86430FF23C4E9125513
:103CD00084F86630C4E91455C4E916550CF094FA1A
:103CE00004F1B4000CF090FA04F1FC000CF08CFA32
:103CF00004F5A2700CF088FA04F5C6700CF084FA92
:103D000004F5EA700CF080FA04F507700CF07CFA08
:103D100004F519700CF078FA04F52B700CF074FAB5
:103D200029463046FFF712FA29463046FFF710FAC7
:103D300030464FF44871FFF70DFA30464FF4F071FA
:103D4000FFF70AFA4FF07F43201D3146A36609F0C2
:103D50005BFB204670BD00BFB8320208983C0208E9
:103D60007047000030B5164D8FB02C68BFF35B8FE5
:103D700014F0010420D128461BF04CFEE0B13F2393
:103D8000012210490993104B10480893104B0A94D4
:103D90000594CDE906430423CDE903320A23CDE996
:103DA0000B440093CDE90144FFF73AFF09481CF0AA
:103DB000E5F928461BF03AFE04480FB030BD00BFBD
:103DC000A0B00024B847020864480208A4B0002448
:103DD00070480208613D00087047000030B5164D7C
:103DE0008FB02C68BFF35B8F14F0010421D12846FB
:103DF0001BF010FEE8B13F23012210490993104B3C
:103E000010480893104B0A940594CDE90643042307
:103E1000CDE9033214230A220093CDE90B44CDE906
:103E20000144FFF7FDFE09481CF0A8F928461BF0E5
:103E3000FDFD04480FB030BDD0B00024C8470208D3
:103E400068480208D4B0002474480208D93D00082C
:103E50007047000030B5164D8FB02C68BFF35B8FF4
:103E600014F0010420D128461BF0D4FDE0B13F231B
:103E7000012210490993104B10480893104B0A94E3
:103E80000594CDE906430423CDE903322823CDE987
:103E90000B440093CDE90144FFF7C2FE09481CF032
:103EA0006DF928461BF0C2FD04480FB030BD00BFBD
:103EB00000B10024544802086C48020804B10024F0
:103EC00078480208513E00080020704700207047E3
:103ED0000EB403B503AB002153F8042B01930FF08C
:103EE0004BFC02B05DF804EB03B070470CB407B5AF
:103EF00004AB53F8042B01930FF03EFC03B05DF8C4
:103F000004EB02B070470000436C10B5044673B375
:103F1000038F2BB9184BC521184A19481CF010F90A
:103F2000C38E00EB43035B8C0BB311F0DFF9238FDF
:103F3000012B03D8134BCB21134AEEE7E28E40F658
:103F40003F10531C9BB2092B194688BFA3F10A01ED
:103F500004EB4101498C814209D10A2B04EB420256
:103F600028BF0023508C04EB43035884518420461F
:103F7000BDE8104011F0BCB8E4320208ED3202088E
:103F800098330208F0330208FE33020811F079B8C2
:103F900010B586B002AC84E806001A460AAB21468A
:103FA00005930193099B0093089B0EF035F806B02A
:103FB00010BD000038B518BB124B13481C681349DC
:103FC000B4B1226822440260626822440A60A26896
:103FD00014440F4B00221A8000F038F8054600F018
:103FE00033F80C4B1C600C4B1D600C4B188007E029
:103FF0000B4B03600B4B0B600B4B1C68002CE8D188
:1040000038BD00BF3CB1002434B1002430B10024DD
:1040100038B10024B0510224B8510224B451022412
:10402000A438019080380190C8380190044B1B6877
:1040300053F82100034B1B6803EB4000704700BF9F
:1040400030B1002434B10024092070470048704783
:1040500040B1002410B5054CFFF7C0FE2060FFF70B
:10406000F9FE6060FFF77EFEA06010BD40B1002445
:1040700010B5002404600C6014601C6010BD704713
:1040800010B504464FF4AE711BF0C2FC204610BDC3
:1040900010B50446D0F8580100F013F82046BDE8EA
:1040A00010400EF09DBC000010B50446FFF746FD21
:1040B000014B2046236010BDD83402080022026064
:1040C00070477047704704387047704710B5044612
:1040D00010211BF09DFC204610BDA0F10400F5E767
:1040E0000022C1608260024A02601832426070475A
:1040F0002C350208704738B500F5407500F5497455
:1041000055F8040F03685B699847A542F8D138BD9C
:10411000704730B444680346C2689B68551004EB8E
:104120006200D20748BF625930BC48BFD358184715
:104130000346406830B19A681AB9D86800F00100A7
:1041400070470120704710B5044610211BF060FC39
:10415000204610BD034B10B504460360FFF795FDE4
:10416000204610BD7036020810B50446FFF7F2FF76
:104170004FF44A7120461BF04BFC204610BD000056
:10418000F8B5194B0646018F1B888B422AD9174B6D
:104190001B682BB9164B6C21164A17481BF0D0FF31
:1041A00013F81120154B1B6853F82250144B186854
:1041B000FFF73CFF2B68074628469B6B98472B6808
:1041C000044639469B6C2846984714FB00F42B683C
:1041D0003946A4B228465B6A984723181BB2A6F852
:1041E0004630F8BD0023FAE7B4510224B05102244E
:1041F0004C3502088E350208C9350208B851022430
:10420000BC51022410B50446006818B1A168091A0F
:104210001BF0FEFB204610BD10B50C1A134605D04E
:104220000146224618461CF065FA0346181910BDCF
:1042300081420A682DE9F04105460C4620D08B6882
:10424000D0E900789B1AA8EB07069E4220D9002EE1
:1042500001DA1BF002FC30461BF0EBFB4146024644
:1042600005463846FFF7D8FF206818B1A168091A3B
:104270001BF0CEFB25603544A560236833446360A2
:10428000D4E90035ED1A013D002D15DCBDE8F081C3
:104290004B689B1A9E4204D841463846FFF7BCFF44
:1042A000EBE7F9183846FFF7B7FFD4E90002D5E984
:1042B0000031101A1844F1E71CF024F86A1C236836
:1042C00090FBF2F606FB1200595D1A5C5A55195420
:1042D000D9E70000F8B5541A05460E461746002CDB
:1042E00002DA09481BF0BCFB0CD020461BF0A1FBF6
:1042F00002461444394630462A60AC60FFF78CFF12
:104300006860F8BD2246F4E71E36020830B5174A49
:1043100087B005460024106803AB516805F5407569
:10432000127A029403C303A91A7068460DF11502AC
:10433000CDE90044FFF7CEFF03A968460594CDE917
:104340000344FFF775FF039B55F8040F1B5D013411
:104350000387FFF715FF092CF5D103A8FFF752FFDC
:104360006846FFF74FFF07B030BD00BF701202086C
:10437000FFF7CCBF2DE9F04F8BB00546FFF790FC5F
:10438000344B354A00242B604FF0010A334BA346CF
:1043900010685168127AC5F800430694C5E9BD3526
:1043A0002F4BC5F8FC3207AB03C307A91A7004A84A
:1043B0000DF12502CDE90444FFF78CFF07A904A8FD
:1043C0000994CDE90744FFF733FF23460FFA84F938
:1043D00098460027482001931BF02BFB06460BF064
:1043E00013FF02A903AA3046B7806E37A6F80690DD
:1043F000ADF808B0BFB2ADF80CA00BF07CFD079A89
:10440000304612F808203287FFF7BAFE4FF0FF322D
:104410003146281DC6E90F2205F53D72B26208F04B
:10442000F3FF05F54172B7F5A57F019B42F82860BF
:1044300008F10108CED103336E34092BA4B2C5D1E3
:1044400007A8FFF7DFFE04A8FFF7DCFE28460BB045
:10445000BDE8F08F70360208701202085836020864
:1044600071430008FFF712BC01234FF4487200208B
:104470000B8002238B704FF4F073C1E90123704766
:1044800090F82430012B04BF002380F82430002052
:1044900070470020704710B404690089A4465DF895
:1044A000044B604710B4C4680089A4465DF8044B0F
:1044B000604770B500F118050E460978284600F0EF
:1044C00011F904463179284600F018F90444317A8C
:1044D000284600F01FF90444317B284600F026F9F5
:1044E0000444317C284600F02DF90444317D2846EF
:1044F00000F034F9C44214BF4FF0FF30002070BD0B
:1045000013B50C4618300DF1070100F03FF99DF886
:104510000730236002B010BD37B500F118050C4616
:1045200001A9284600F0D1F808BB9DF80430022B01
:1045300098BF184604232060032128460DEB030290
:1045400000F0B0F8B0B99DF804309DF805201B02CA
:1045500003F4706313439DF8072063609DF80630F1
:104560001B0203F470631343A36003B030BD4FF02C
:10457000FF30DFE74FF0FF30F7E7183000F0A0B86A
:104580000121183000F0F6B80021183000F0F2B820
:1045900010B590F8243004466BB90368984720465C
:1045A000FFF7F2FF00384FF0010318BF012084F835
:1045B0002430404210BD0020FCE70020704730B599
:1045C00000F1180585B00C46284601A900F07DF8D9
:1045D000002845D19DF80430022B98BF1846206072
:1045E0000C2301AA0321284600F05CF800283AD1E8
:1045F0009DF804209DF805101302920903F47063DE
:10460000E2610B439DF807109DF80A2063609DF856
:1046100006301B0203F470630B439DF80B10E3603C
:104620009DF8083063619DF809301B09636213022D
:10463000920903F4706322620B439DF80D10A3608E
:104640009DF80C301B0203F470630B4323619DF84B
:104650000E30A3619DF80F301B09A36205B030BD79
:104660004FF0FF30BBE74FF0FF30F7E790B14A68FB
:104670000B6842600A8903600281CA68C2600A69E5
:1046800002614A6900624261044AC261044A82616D
:1046900003B118474FF0FF30704700BF9744000840
:1046A000A544000810B4D0E90140A4465DF8044BCD
:1046B000604710B404688068A4465DF8044B604706
:1046C00001230A461946FFF7EDBF10B50A460C460E
:1046D00001230221FFF7E6FF18B9237803F00F0347
:1046E000237010BD07B501238DF807100DF10702E7
:1046F0009121FFF7DEFF03B05DF804FB07B501234E
:104700008DF807100DF107029221FFF7D2FF03B0D9
:104710005DF804FB07B501238DF807100DF10702C2
:104720009321FFF7C6FF03B05DF804FB07B5012333
:104730008DF807100DF107029421FFF7BAFF03B0BF
:104740005DF804FB07B501238DF807100DF1070292
:104750009521FFF7AEFF03B05DF804FB07B5012319
:104760008DF807100DF107029621FFF7A2FF03B0A5
:104770005DF804FB07B501238DF807100DF1070262
:10478000A421FFF796FF03B05DF804FB0A4601235E
:10479000A821FFF787BF000008B50122074BC3E936
:1047A00000219A6000221946DA604FF6FF7206F087
:1047B000A9F9003818BF0120404208BD4CB10024BF
:1047C00008B50222084BC3E9002101210022C3E9F8
:1047D00002124FF6FF72194606F094F9003818BF1E
:1047E0000120404208BD00BF4CB100240A46D1E977
:1047F000033110B50B43516904240B4391690B43FA
:10480000D16912680B4307494A6001220C60C1E973
:1048100002234FF6FF7206F075F9003818BF012029
:10482000404210BD4CB1002408B5084BC3E900213B
:1048300008210022C3E902124FF6FF72194606F062
:1048400061F9003818BF0120404208BD4CB1002476
:1048500008B506F076F9003818BF0120404208BDBF
:1048600070B50C4609680546FFF796FF10B14FF08A
:10487000FF3070BD01F07CFC064601F079FC8642F9
:10488000FBD021682846FFF79BFF0028EFD1284680
:10489000D4E90012FFF7C8FF0028E8D121462846D6
:1048A000FFF7A4FF0028E2D1A1682846FFF7D0FF58
:1048B000003818BF01204042DBE74FF000624FF4A0
:1048C00000534FF48071C0E900234FF48043C0E9E6
:1048D00002314FF4002303610020704700B54FF40C
:1048E000407395B04FF040720C9305230F92022253
:1048F000069300230B9206A913930093049303924B
:104900006A46CDE90D33CDE91133102302934FF4FC
:104910008003059340F20113019341F2883304F0C0
:10492000F8FC002814BF6FF00400002015B05DF8FB
:1049300004FB032941F2883230B508BF4FF44073BD
:1049400095B018BF4FF480730C4606A905460C932A
:10495000062306930023CDE90D330F930B93139396
:10496000CDE9113304F0D4FB20BB40F20223022234
:10497000032C4FF4800104902846CDE900334FF01A
:104980001003CDE902324FF005036A46CDE9051365
:1049900014BF4FF080734FF0407306A90F9341F29C
:1049A000883304F0B6FC002814BF6FF00400002028
:1049B00015B030BD6FF00100FAE7032930B508BF2C
:1049C0004FF440738FB018BF4FF4807304460D4608
:1049D0000693B72300930023CDE90733099305938A
:1049E0000D93CDE90B33FFF7A4FF18B16FF0010071
:1049F0000FB030BD41F288326946204604F088FB92
:104A00000028F3D129462046FFF768FF0028EFD0A1
:104A1000ECE700B54FF480738FB041F28832069313
:104A20003523694600930023CDE9073309930593A5
:104A30000D93CDE90B3304F06BFB002814BF6FF02E
:104A4000010000200FB05DF804FB00B54FF4807347
:104A50008FB041F288320693F52369460093002314
:104A6000CDE90733099305930D93CDE90B3304F09A
:104A70004FFB002814BF6FF0010000200FB05DF85D
:104A800004FB00B591B003290ED8DFE801F002293C
:104A9000343F4FF4807308930E2302934FF48063E6
:104AA00009934FF080730B9308224FF440534FF05B
:104AB000004C02A907924FF0804205930023CDE9F4
:104AC0000DC26A460A930F93CDE9003304F072FCDD
:104AD000002814BF6FF00500002011B05DF804FB42
:104AE0004FF4807308933D2302934FF4806309933E
:104AF0004FF00073D7E74FF480730893EE230293CF
:104B00004FF4406309934FF04073CCE74FF4407388
:104B10000893ED23F3E700B591B003290ED8DFE841
:104B200001F00225303B4FF4807308930C2302936D
:104B30004FF4806309934FF080730B9308236A4608
:104B400002A907934FF44053059300230A930F9350
:104B5000CDE90D33CDE9003304F02CFC002814BF5F
:104B60006FF00500002011B05DF804FB4FF4807376
:104B70000893BC2302934FF4006309934FF0007332
:104B8000DBE74FF480730893EC2302934FF4406308
:104B900009934FF04073D0E74FF440730893EB2331
:104BA000F3E7032941F2883200B518BF4FF4807350
:104BB0008FB008BF4FF44073694606936623009395
:104BC0000023CDE90733099305930D93CDE90B330A
:104BD00004F09EFA002814BF6FF0010000200FB00F
:104BE0005DF804FB032941F2883200B518BF4FF489
:104BF00080738FB008BF4FF44073694606939923C2
:104C000000930023CDE90733099305930D93CDE974
:104C10000B3304F07DFA002814BF6FF00100002070
:104C20000FB05DF804FB10B484680088A4465DF8FA
:104C3000044B604710B444680088A4465DF8044BF8
:104C4000604770B5C36804460D4698470646E3685A
:104C50009847831BAB42FAD370BD00002DE9F341A6
:104C6000002300F1100507460E4690461946DE4A1D
:104C7000284600F099FB03230446DC4AFF2128461E
:104C800000F092FB00230444D94A1946284600F05C
:104C90008BFB02230444D74AFF21284600F084FB03
:104CA00000230444D24A1946284600F07DFB044400
:104CB0000023D14AC421284600F076FB0A2104448F
:104CC0003846FFF7BEFF0023CC4A2846194600F0BD
:104CD0006BFB04440023CA4AC421284600F064FB4D
:104CE0000A2104443846FFF7ACFF0023C54A284692
:104CF000194600F059FB00230444C34AC521284645
:104D000000F052FB00230444C04A1946284600F034
:104D10004BFB00230444BE4AC521284600F044FB57
:104D200000230444BB4A1946284600F03DFB0023FB
:104D30000444B94AC021284600F036FB002304444D
:104D4000A94A1946284600F02FFB00230444B34A21
:104D5000D921284600F028FB00230444B04A194614
:104D6000284600F021FB00230444AE4AC121284616
:104D700000F01AFB00230444AB4A1946284600F011
:104D800013FB00230444A94AC521284600F00CFB6C
:104D900000230444A64A1946284600F005FB0023D8
:104DA00004449B4AC521284600F0FEFA002304442F
:104DB0008D4A1946284600F0F7FA022304449D4A1A
:104DC000D821284600F0F0FA002304449A4A1946F4
:104DD000284600F0E9FA00230444984AC5212846F1
:104DE00000F0E2FA00230444954A1946284600F0F0
:104DF000DBFA00230444934AC021284600F0D4FA89
:104E000000230444904A1946284600F0CDFA0023B6
:104E100004448E4AC521284600F0C6FA0023044403
:104E20008B4A1946284600F0BFFA00230444894AF9
:104E3000C421284600F0B8FA00230444784A1946F1
:104E4000284600F0B1FA00230444834AC1212846D1
:104E500000F0AAFA00230444804A1946284600F0CC
:104E6000A3FA022304447E4AB321284600F09CFAA8
:104E7000002304445E4A1946284600F095FA0623AA
:104E80000444784ACE21284600F08EFA00230444D8
:104E9000754A1946284600F087FA0E230444734ADF
:104EA000CE21284600F080FA00230444704A1946B7
:104EB000284600F079FA0E2304446E4ACE21284693
:104EC00000F072FA002304446B4A1946284600F0A9
:104ED0006BFA0A230444694ACF21284600F064FA99
:104EE00000230444664A1946284600F05DFA002370
:104EF0000444644ACF21284600F056FA00230444B3
:104F00003B4A1946284600F04FFA0A2304445E4AF9
:104F1000CB21284600F048FA002304445B4A194696
:104F2000284600F041FA0F230444594ACB21284671
:104F300000F03AFA002304444B4A1946284600F090
:104F400033FA0F230444534ACB21284600F02CFAAD
:104F500000230444464A1946284600F025FA0A234D
:104F600004444D4ACB21284600F01EFA0023044495
:104F7000414A1946284600F017FA0F230444474ACD
:104F8000CB21284600F010FA002304443C4A19467D
:104F9000284600F009FA0F230444414ACB21284651
:104FA00000F002FA002304443E4A1946284600F065
:104FB000FBF90A2304443C4ACB21284600F0F4F9CB
:104FC00000230444394A1946284600F0EDF90A2323
:104FD0000444374ACB21284600F0E6F90023044474
:104FE000034A1946284665E0A9370208A537020892
:104FF000AA370208A3370208AB370208AC37020809
:10500000AD370208AE370208AF370208B0370208E2
:10501000B1370208B2370208B3370208B4370208C2
:10502000B7370208B8370208B9370208BA3702089A
:10503000BB370208A1370208BC370208BD37020897
:10504000BE370208BF370208C0370208C13702085E
:10505000B5370208C2370208C3370208C43702084E
:105060009F37020899370208C53702088B370208B4
:10507000C63702087D370208C737020873370208AF
:10508000C8370208D537020869370208C93702084D
:105090005A3702084B3702084137020832370208F4
:1050A00023370208CA37020819370208CB3702082B
:1050B0000F37020800F078F90A2304448E4ACC2105
:1050C000284600F071F9002304448C4A194628460A
:1050D00000F06AF90F230444894ACC21284600F0E5
:1050E00063F900230444874A1946284600F05CF916
:1050F0000F230444844ACC21284600F055F90023AC
:105100000444824A1946284600F04EF90A23044412
:105110007F4ACC21284600F047F9002304447D4A09
:105120001946284600F040F90F2304447A4ACC215E
:10513000284600F039F900230444784A19462846E5
:1051400000F032F90F230444754ACC21284600F0C0
:105150002BF900230444734A1946284600F024F929
:1051600000230444704AC521284600F01DF900239D
:1051700004446E4A1946284600F016F900230444F8
:105180006B4AF521284600F00FF900230444694AD0
:105190001946284600F008F900230444664AC6214F
:1051A000284600F001F900230444644A19462846C1
:1051B00000F0FAF803230444614AFF21284600F076
:1051C000F3F8002304445D4A1946284600F0ECF841
:1051D00000230444594A1946284600F0E5F81023F4
:1051E0000444584AE121284600F0DEF80023044434
:1051F000524A1946284600F0D7F804441023524A70
:10520000E221284600F0D0F8044400234F4A11213F
:10521000284600F0C9F8782104443846FFF711FD0C
:105220004B4F002E61D0022E07D10023494A3A216C
:10523000284600F0B9F804447E60B8F1010F57D158
:1052400060230DF10702362128468DF80730002330
:1052500000F0AAF8261804233F4A2A21284600F025
:10526000A3F8064404233D4A2B21284600F09CF86D
:105270003418C7F8008000260023394A51212846F7
:1052800000F092F804443346364A53212846BE6063
:1052900000F08AF804443346334A5521284600F08A
:1052A00083F804443346314A5E21284600F07CF8F6
:1052B000044433462E4A2921284600F075F8044458
:1052C000334631461D4A284600F06EF80444334602
:1052D000284A2C21284600F067F8C44214BF4FF03A
:1052E000FF30304602B0BDE8F0813346224A9EE7E7
:1052F00000233B60BFE700BF05370208C93702083B
:10530000F6360208C5370208E7360208C637020833
:10531000DD360208C7370208CE360208C837020851
:10532000BF360208B5370208D6370208D737020859
:10533000D8370208D9370208DA370208A937020835
:10534000BC360208AC3602089C360208CC3702088C
:105350005CB10024CD370208DF370208DB370208D2
:10536000CF370208D0370208D1370208D2370208F7
:10537000D3370208D4370208CE37020860B14B6831
:1053800043608B688360CB688061C360044B43617A
:10539000044B0361002070474FF0FF30704700BF9F
:1053A000274C0008354C000810B404688068A446F7
:1053B0005DF8044B60470000104A08B51368013BD4
:1053C00013600BB1002008BD4FF480510C4801F070
:1053D000FDFD0B484FF4005101F0F8FD094A0A4861
:1053E000D2F8F43023F08003C2F8F43002F032F83F
:1053F0000028E7D06FF00700E5E700BFC0BB00243E
:10540000000C02580044025868B100240023012215
:1054100010B5416004460362C0E90232C0E90433BA
:10542000C0E9063301F0C4FF014608B1012010BDF8
:10543000204602F0E6F901460028F7D1204602F0A6
:1054400006FA003818BF0120F1E70000A14BA2487E
:105450002DE9F04F036093B0A04B1C681CB10020F5
:1054600013B0BDE8F08F01221A6002F0C5F90028E0
:10547000F5D19B4D4FF0120802270426D5F8E030F5
:105480000DA9984843F00803C5F8E030D5F8E0309E
:1054900003F008030A930A9BD5F8E03043F00803B1
:1054A000C5F8E030D5F8E0300F9403F008030B9313
:1054B0000B9B4FF48053CDE91076CDE90D3801F008
:1054C0009DFC4FF400530DA986481196CDE90D3887
:1054D000CDE90F4701F092FCD5F8F43043F080039A
:1054E000C5F8F430D5F8F43003F080030C930C9B2E
:1054F000D5F89C3043F08003C5F89C30D5F89C303B
:1055000023F08003C5F89C3004F08CFC00286FD099
:10551000754B2246A2464FF0100903EB5003DFF80B
:10552000D0B1B3FBF0F000EB400500FA07F60146FE
:10553000C5F13203C6F5C37623EAE37326EAE676BD
:1055400000936A4B1B6888464FF0000CB8F5AF7F9C
:10555000CDF804C00CF1010C5DD30027BE46009DC0
:10556000BD4252D8BE4250D391454ED0142505FBC2
:1055700003FA0133019D0BEB0A097F2B4BF80A203C
:10558000C9E9015E3ED9594A1360584B40F6C4152B
:105590004FF0FF3256491B68002705934300C3F5BF
:1055A000806BCDE901250BF1010B03F13205A3F668
:1055B000340308950993059B9F4238D1019B7F2BAB
:1055C00016D81421019A4A4B4A4399189B580C7CCF
:1055D00044EA03744B681B0503F470031C438B6897
:1055E0001B0403F470231C43CB681B029BB21C43B7
:1055F00021463948FFF70AFF00283FF430AF6FF02B
:1056000007002DE791464FF0010A0EF1010E0F44FD
:10561000BEF1100FA3D1BCF1100F884496D1013216
:105620000144102A8FD1BAF1000FACD1ADE70B685D
:105630004FF0000C089D03FB0003099E1D441E440F
:105640000395ABEB030507966D000095039D40F2B3
:105650001452CDF810C00CF1010C95422FD9A5F1D0
:105660003206B0EB960F2AD2079E4FF0000EDDF8FF
:1056700000902E44DDF80C8006F2A11A40F212428E
:10568000CDF818E00EF1010E924511D8B8F5167F4D
:105690000ED380450CD936EA260A28BFCA46029A9C
:1056A000924505D2049A0A61069ACDE9017ACA6048
:1056B000BEF5807F98441E44A9EB0309DCD1009A13
:1056C000BCF5807F1D44A2EB03020092BFD10137DD
:1056D000143170E7001C005868B10024C0BB0024DE
:1056E00000440258000C025800CA9A3BBCB1002486
:1056F000C0B100241FB54FF47A7400920A460146E7
:105700000848CDE90134012301F0BEFE40B105484F
:1057100002F075F8042814BF6FF003006FF0650005
:1057200004B010BD68B100241FB54FF47A74009224
:105730000A4601460848CDE90134012301F07EFF05
:1057400040B1054802F05BF8042814BF6FF0030075
:105750006FF0650004B010BD68B1002400F008BD12
:10576000094A4FF4407C02604A684260012282602C
:105770008A68C2600A6802610022C0E905C2C2618B
:10578000CA68026203F078BC0050005210B588B9B4
:105790000A4C0B48A37861784BB9FFF7BCF910B1FC
:1057A0006FF0040010BD022300202370FAE7FFF71A
:1057B00068F9F4E76FF00100F4E700BFC4BB002410
:1057C000C4010024F8B50C46174630BB174D2B78A2
:1057D000022B25D0B2FA82F3154E5B0930461B012D
:1057E000F36003F049FCF0B96B78032B0FD1032C65
:1057F00005D1012300206C702B70AF70F8BD3046CE
:10580000FFF723F90028F4D06FF00400F6E7032C2B
:10581000EFD13046FFF7FDF8F4E76FF00100EDE758
:105820006FF01900EAE76FF00300E7E7C4BB00245C
:10583000C40100242DE9F0470C46A4B0002840F034
:10584000AC81034D2F782FB1002024B0BDE8F08744
:10585000C4BB0024C34B4FF00409092616A9D3F892
:10586000D4204FF04008C0484FF00A0A42F480426A
:10587000C3F8D420D3F8D42002F480420192019AD4
:10588000DA6F42F48042DA67DA6F22F48042DA6734
:10589000D3F8E02042F00202C3F8E020D3F8E02081
:1058A00002F002020292029AD3F8E02042F0400293
:1058B000C3F8E020D3F8E02002F040020392039AFC
:1058C000D3F8E02042F00802C3F8E020D3F8E0204B
:1058D00002F008020492049AD3F8E02042F0200279
:1058E000C3F8E020D3F8E02002F020020592059AE8
:1058F000D3F8E02042F02002C3F8E020D3F8E02003
:1059000002F020020692069AD3F8E02042F020022C
:10591000C3F8E020D3F8E02002F020020792079AB3
:10592000D3F8E02042F04002C3F8E020D3F8E020B2
:1059300002F040020892089AD3F8E02042F0800278
:10594000C3F8E020D3F8E02002F080020992099A1F
:10595000D3F8E02042F08002C3F8E020D3F8E02042
:1059600002F080020A920A9AD3F8E02042F0400244
:10597000C3F8E020D3F8E02002F040020B920B9A2B
:10598000D3F8E02042F04002C3F8E020D3F8E03042
:1059900003F040030C930C9B0223CDE916930323E1
:1059A0001A96CDE9187301F029FA012316A96F4858
:1059B0001893CDF85880CDF868A001F01FFA4FF485
:1059C000006316A96A48169318971A9601F016FAFA
:1059D00016A9CDF8589067484FF400791A9601F04F
:1059E0000DFA16A96448CDF85890CDF868A001F0DA
:1059F00005FA082316A95F4816931A9601F0FEF9D6
:105A0000802316A95C4816931A9601F0F7F916A997
:105A10005648CDF8589001F0F1F916A95648CDF83E
:105A2000588001F0EBF94FF4804316A94F481693C4
:105A300001F0E4F93A460F215C2000F0C9FB5C203C
:105A400000F0F8FB11A8FEF738FF63784B4ACDF859
:105A5000408052F823200E92119A92FAA2F2B3FAE1
:105A600083F3B2FA82F20DA945485B09013A1B01A2
:105A70000D920F93FFF774FE002840F091800321F0
:105A80003F48FFF78EF8002840F0848003213C480F
:105A9000FFF7A8F800287DD169783948FEF71EFF86
:105AA0000146002876D13648FFF77BF801460028EA
:105AB00070D13348FFF796F8014600286AD10123D8
:105AC000A8702F482B80FEF709FF002862D1697863
:105AD0002B48FEF772FF00285CD14FF44073ADF8FD
